:020000040000fa
:080000000002040000000000f2
:020000040000fa
:10000800d2020000d2020000d2020000d202000098
:10001800d2020000d2020000d2020000d202000088
:10002800d2020000d2020000d202000090020000ba
:10003800d2020000d2020000d2020000d202000068
:10004800d2020000d2020000d2020000d202000058
:10005800d2020000d2020000d2020000d202000048
:10006800d2020000d2020000d2020000d202000038
:10007800d2020000d2020000d2020000d202000028
:10008800d2020000d2020000d2020000d202000018
:10009800d2020000d2020000d2020000d202000008
:1000a800d2020000d2020000d2020000d2020000f8
:1000b800d2020000d2020000d2020000d2020000e8
:1000c800d2020000d2020000d2020000d2020000d8
:1000d800d2020000d2020000d2020000d2020000c8
:1000e800d2020000d2020000d2020000d2020000b8
:1000f800d2020000d2020000d2020000d2020000a8
:10010800d2020000d2020000d2020000d202000097
:10011800d2020000d2020000d2020000d202000087
:10012800d2020000d2020000d2020000d202000077
:10013800d2020000d2020000d2020000d202000067
:10014800d2020000d2020000d2020000d202000057
:10015800d2020000d2020000d2020000d202000047
:10016800d2020000d2020000d2020000d202000037
:10017800d2020000d2020000d2020000d202000027
:10018800d2020000d2020000d2020000d202000017
:10019800d2020000d2020000d2020000d202000007
:1001a800d2020000d2020000d2020000d2020000f7
:1001b800d2020000d2020000d2020000d2020000e7
:1001c800d2020000d2020000d2020000d2020000d7
:1001d800d2020000d2020000d2020000d2020000c7
:1001e800d2020000d2020000d2020000d2020000b7
:0801f800d2020000d202000057
:020000040000fa
:10020800d2020000d2020000d2020000d202000096
:10021800d2020000d2020000d2020000d202000086
:10022800d2020000d2020000d202000090020000b8
:10023800d2020000d2020000d2020000d202000066
:10024800d2020000d2020000d2020000d202000056
:10025800d2020000d2020000d2020000d202000046
:10026800d2020000d2020000d2020000d202000036
:10027800d2020000d2020000d2020000d202000026
:10028800d2020000d2020000d2020000d202000016
:10029800d2020000d2020000d2020000d202000006
:1002a800d2020000d2020000d2020000d2020000f6
:1002b800d2020000d2020000d2020000d2020000e6
:1002c800d2020000d2020000d2020000d2020000d6
:1002d800d2020000d2020000d2020000d2020000c6
:1002e800d2020000d2020000d2020000d2020000b6
:1002f800d2020000d2020000d2020000d2020000a6
:10030800d2020000d2020000d2020000d202000095
:10031800d2020000d2020000d2020000d202000085
:10032800d2020000d2020000d2020000d202000075
:10033800d2020000d2020000d2020000d202000065
:10034800d2020000d2020000d2020000d202000055
:10035800d2020000d2020000d2020000d202000045
:10036800d2020000d2020000d2020000d202000035
:10037800d2020000d2020000d2020000d202000025
:10038800d2020000d2020000d2020000d202000015
:10039800d2020000d2020000d2020000d202000005
:1003a800d2020000d2020000d2020000d2020000f5
:1003b800d2020000d2020000d2020000d2020000e5
:1003c800d2020000d2020000d2020000d2020000d5
:1003d800d2020000d2020000d2020000d2020000c5
:1003e800d2020000d2020000d2020000d2020000b5
:0803f800d2020000d202000055
:020000040000fa
:10040000efa620000eff20000e0188000000000073
:100410000c00070080f822000100200011000700f6
:10042000000020000000e000020032000000020096
:100430000000000020330200000000000040da004d
:100440000000fe004440a900c00820000000e000b9
:100450000300320000002000a00188004440a800f2
:100460000000060091018800800078000000eb0089
:1004700015003700e280400032a0b4009101ba00bc
:10048000e280400032a0b4009102ba00e280400055
:1004900032a0b4000002eb00472bde00f507b200eb
:1004a000602ce10004003a000059eb008301e900f0
:1004b000fdff3e00040037006128e100010032002a
:1004c0000082eb00040007001101ba000200e00006
:1004d000e8ff3a00000006003159ba008301e90044
:1004e0000c0032002159ba008301e90008003200f3
:1004f0000400e00003003a00e280400032a0b400b3
:10050000f5ff370011d9ba008301e900faff3a007c
:100510008100e800e180400032a0b4000000060045
:100520003600f800809fbe00829fbe003400f800b5
:1005300000002000a00188000000fa008460a900eb
:1005400022c8bf000081fb0051002000810178001b
:10055000801f7800110009000381d8000001780095
:100560004f007800814078008180fb008100e90025
:10057000cf08de00814078000040e80022e8b700a4
:10058000e0cf5000010032000e08a8000080fa0001
:100590003400f9004f01be004f00be003600f900e4
:1005a000004006000040da000000fe006900e100a3
:1005b000040035006d00e100030034000002b100ca
:1005c0000100320000000500100005000200fa00e2
:1005d000c8e2a800c8c2a800c8a2a800c082a8009b
:1005e000c862a800c842a800c822a800c802a80083
:1005f000c442a900c422a80013000700c402a80036
:1006000028000700511680000008200000806000cc
:10061000e00f50000300320010c0b300004f78001c
:10062000020037000040eb00004f7800c402a90030
:1006300033000700c442a900c422a9001e4078006c
:100640000080fa00000006000200fa00881f78000f
:100650000000eb00000f7800030037000060fe0090
:100660001e007800640f40001e007800cf80de007e
:100670003505070018c0b3009299290093012400a2
:100680002d050700e00f5000010035000044eb008d
:10069000e04f5400f1ff3a004f0478000080fa0068
:1006a000000006000200fa00881f78000000eb003e
:1006b000000f7800030037000060fe001e00780085
:1006c000640f40001e007800cf80de001e0507008a
:1006d00018c0b300626626006316240016050700e2
:1006e000e00f5000010035000044eb00e04f5400e3
:1006f000f1ff3a004f0478000080fa000000060085
:100700000200fa00881f78000000eb00000f78005c
:10071000030037000060fe001e007800640f4000f8
:100720001e007800cf80de000705070018c0b30068
:1007300002002000030c2400ff040700e00f50001b
:10074000010035000044eb00e04f5400f1ff3a0097
:100750004f0478000080fa00000006000200fa0052
:10076000881f78000000eb00000f780003003700be
:100770000060fe001e007800640f40001e0078003c
:10078000cf80de00f004070018c0b3000200200094
:1007900003192400e8040700e00f500001003500b1
:1007a0000044eb00e04f5400f1ff3a004f047800a2
:1007b0000080fa00000006000200fa00881f78009e
:1007c0000000eb00000f7800030037000060fe001f
:1007d0001e007800640f40001e007800cf80de000d
:1007e000d904070018c0b30002002000031c240035
:1007f000d1040700e00f5000010035000044eb0079
:10080000e04f5400f1ff3a004f0478000080fa00f6
:10081000000006000400fa00881f78006000b8009d
:10082000008fbe00050037000060fe004000200081
:10083000010020001e0f40005e9748001e00be0011
:10084000c104070018c0b30002c027002391240090
:10085000b9040700e00f5000010035000044eb0030
:10086000e04f5400f0ff3a004f0478000080fa0097
:10087000000006000400fa00881f78006000b8003d
:10088000008fbe00050037000060fe004000200021
:10089000010020001e0f40005e9748001e00be00b1
:1008a000a904070018c0b300020025003384240007
:1008b000a1040700e00f5000010035000044eb00e8
:1008c000e04f5400f0ff3a004f0478000080fa0037
:1008d000000006000200fa00881f78000000eb000c
:1008e000000f7800030037000060fe001e00780053
:1008f000640f40001e007800cf80de0092040700e5
:1009000018c0b30002002000031c24008a04070062
:10091000e00f5000010035000044eb00e04f5400b0
:10092000f1ff3a004f0478000080fa000000060052
:100930000200fa00004f7800b6ff0700cce2a900e1
:10094000ccc2a900cca2a900c482a900cc62a90093
:10095000cc42a900cc22a900cc02a900c422a90043
:10096000c442a900c402a900c8e2a900c8c2a900e3
:10097000c8a2a900c082a900c862a900c842a900f3
:10098000c822a900c802a900c022a900c042a9002b
:10099000c002a9001e407800bb0107000000000053
:1009a0000aff0700e04f5000fdff3a00e0c0b3002f
:1009b000b50107000000000004ff0700e04f5000f1
:1009c000fdff3a0010c0b300af01070000000000b7
:1009d000fefe0700e04f5000fdff3a0060c0b3008c
:1009e000a901070000000000f8fe0700e04f5000da
:1009f000fdff3a000080fa00000006000200fa0045
:100a0000000f780007003700007d20000100200063
:100a1000c21707001e007800104078001702070078
:100a20001e0fe8001e00780010407800e04f5000d4
:100a3000f5ff3a00007d200001002000b7170700f5
:100a40000080fa00000006000800fa000040eb00f9
:100a5000004f7800c8e2a800c8c2a800c8a2a80039
:100a6000c082a800c862a800c842a800c822a80086
:100a7000c802a800c422a800c442a900f2fe0700d0
:100a8000c402a80007ff0700501680004600de00e1
:100a90006140600070479800501680004500de00fd
:100aa0006140600060479800101680004400de003e
:100ab0006140600050479800501680004300de00ff
:100ac0006140600040479800501680004200de0000
:100ad0006140600030479800501680000000d1004f
:100ae0006140600020479800501680000040780068
:100af0006140600010479800c402a90000ff070091
:100b0000c442a900c422a9007e4090000000fb005e
:100b10004600dd00004f78006e4090000000fb00b2
:100b20004500dd00004078001e4f70005e409000e0
:100b30000000fb004400dd00004078001e4f700004
:100b40004e4090000000fb004300dd0000407800b4
:100b50001e4f70003e4090000000fb004200dd0090
:100b6000004078001e4f70002e4090000000fb00f7
:100b700000004000004078001e4f70001e409000b2
:100b80001e4f70001e4078000080fa000000060032
:100b90000a00fa000040eb00004f7800c8e2a8000d
:100ba000c8c2a800c8a2a800c082a800c862a80045
:100bb000c842a800c822a800c802a800c422a800f1
:100bc000c442a800a0fe0700c402a800b5fe0700aa
:100bd000501680004700de0061406000004f980022
:100be000501680004600de006140600070479800ab
:100bf000501680004500de006140600060479800ac
:100c0000101680004400de006140600050479800ec
:100c1000501680004300de006140600040479800ad
:100c2000501680004200de006140600030479800ae
:100c3000501680000000d1006140600020479800fd
:100c40005016800000407800614060001047980016
:100c5000c402a900aafe0700c442a900c422a90038
:100c60000e4890000000fb004700dd00004f7800b8
:100c70007e4090000000fb004600dd000040780050
:100c80001e4f70006e4090000000fb004500dd002c
:100c9000004078001e4f70005e4090000000fb0096
:100ca0004400dd00004078001e4f70004e40900070
:100cb0000000fb004300dd00004078001e4f700084
:100cc0003e4090000000fb004200dd000040780044
:100cd0001e4f70002e4090000000fb0000004000fe
:100ce000004078001e4f70001e4090001e4f7000a4
:100cf0001e4078000080fa00000006000200fa00a2
:100d0000004f7800c422a900c442a900c8e2a9008b
:100d1000c8c2a900c8a2a900c082a900cce2a9004b
:100d2000ccc2a800c862a900c842a900c822a90074
:100d3000c802a9009e00fb000002200000806000a5
:100d40004580de0000407800614060000080fb00cc
:100d5000610060004500dd0062168000f1fd2f009b
:100d60008100610000807000601688001e00fb009a
:100d7000700060004480de00004078006140600048
:100d80000080fb00610060004400dd00221680004e
:100d9000f1fe2f00810061000080700020168800a5
:100da0001e00fb00680060004380de000040780009
:100db000614060000080fb00610060004300dd00d6
:100dc0006216800071ff2f008100610000807000ba
:100dd000601688001e00fb00640060004280de0098
:100de00000407800614060000080fb00610060000e
:100df0004200dd0062168000b1ff2f00810061001b
:100e000000807000601688001e00fb006200600019
:100e10000080d10000407800614060000080fb004d
:100e2000610060000000400062168000d1ff2f00ca
:100e30008100610000807000601688001e4078000c
:100e40006140600061406000614060000080fb0024
:100e50006100600062168000e1ff2f0081006100e8
:100e60000080700060168800c402a8003bfe0700e6
:100e7000c402a90022fe0700c442a900c422a9009e
:100e8000c8e2a800c8c2a800c8a2a800c082a800e2
:100e9000c862a800c842a800c822a800c802a800ca
:100ea0000080fa00000006000200fa00004f7800ff
:100eb000c422a900c442a900c8e2a900c8c2a9006e
:100ec000c8a2a900c082a900cce2a800c862a900fb
:100ed000c842a900c822a900c802a9009e00fb00c0
:100ee00000042000008060004680de0000407800a2
:100ef000614060000080fb00610060004600dd0092
:100f000062168000f1fb2f008100610000807000fc
:100f1000601688009e00fb00000220000080600038
:100f20004580de0000407800614060000080fb00ea
:100f3000610060004500dd0062168000f1fd2f00b9
:100f40008100610000807000601688001e00fb00b8
:100f5000700060004480de00004078006140600066
:100f60000080fb00610060004400dd00221680006c
:100f7000f1fe2f00810061000080700020168800c3
:100f80001e00fb00680060004380de000040780027
:100f9000614060000080fb00610060004300dd00f4
:100fa0006216800071ff2f008100610000807000d8
:100fb000601688001e00fb00640060004280de00b6
:100fc00000407800614060000080fb00610060002c
:100fd0004200dd0062168000b1ff2f008100610039
:100fe00000807000601688001e00fb006200600038
:100ff0000080d10000407800614060000080fb006c
:10100000610060000000400062168000d1ff2f00e8
:101010008100610000807000601688001e4078002a
:101020006140600061406000614060000080fb0042
:101030006100600062168000e1ff2f008100610006
:101040000080700060168800c402a800c3fd07007d
:10105000c402a900aafd0700c442a900c422a90035
:10106000c8e2a800c8c2a800c8a2a800c082a80000
:10107000c862a800c842a800c822a800c802a800e8
:101080000080fa00000006000200fa00004f78001d
:10109000c422a900c442a900c8e2a900c8c2a9008c
:1010a000c8a2a900c082a900c862a900c842a900bc
:1010b000c822a900c802a9009e00fb000008200069
:1010c000008060004780de000040780061406000e2
:1010d0000080fb00610060004700dd0062168000b8
:1010e000f1f72f0081006100008070006016880019
:1010f0009e00fb0000042000008060004680de00af
:1011000000407800614060000080fb0061006000ea
:101110004600dd0062168000f1fb2f0081006100b7
:1011200000807000601688009e00fb000002200016
:10113000008060004580de00004078006140600073
:101140000080fb00610060004500dd006216800049
:10115000f1fd2f00810061000080700060168800a2
:101160001e00fb00700060004480de00004078003c
:10117000614060000080fb00610060004400dd0011
:1011800022168000f1fe2f008100610000807000b7
:10119000201688001e00fb00680060004380de000f
:1011a00000407800614060000080fb00610060004a
:1011b0004300dd006216800071ff2f008100610096
:1011c00000807000601688001e00fb006400600054
:1011d0004280de0000407800614060000080fb003b
:1011e000610060004200dd0062168000b1ff2f0048
:1011f0008100610000807000601688001e00fb0006
:10120000620060000080d100004078006140600012
:101210000080fb006100600000004000621680005a
:10122000d1ff2f00810061000080700060168800ef
:101230001e407800614060006140600061406000d5
:101240000080fb006100600062168000e1ff2f005b
:10125000810061000080700060168800c402a80050
:101260003efd0700c402a90025fd0700c442a900f5
:10127000c422a9000080fa00000006000200fa0063
:10128000004f7800c422a900c442a800c8e2a90007
:10129000c8c2a900c8a2a900c082a900c862a9004a
:1012a000c842a900c822a900c802a9009e00fb00ec
:1012b00000082000008060004780de0000407800c9
:1012c000614060000080fb00610060004700dd00bd
:1012d00062168000f1f72f0081006100008070002d
:1012e000601688009e00fb00000420000080600063
:1012f0004680de0000407800614060000080fb0016
:10130000610060004600dd0062168000f1fb2f00e6
:101310008100610000807000601688009e00fb0064
:1013200000022000008060004580de000040780060
:10133000614060000080fb00610060004500dd004e
:1013400062168000f1fd2f008100610000807000b6
:10135000601688001e00fb00700060004480de0004
:1013600000407800614060000080fb006100600088
:101370004400dd0022168000f1fe2f008100610094
:1013800000807000201688001e00fb0068006000ce
:101390004380de0000407800614060000080fb0078
:1013a000610060004300dd006216800071ff2f00c5
:1013b0008100610000807000601688001e00fb0044
:1013c000640060004280de00004078006140600000
:1013d0000080fb00610060004200dd0062168000ba
:1013e000b1ff2f008100610000807000601688004e
:1013f0001e00fb00620060000080d1000040780009
:10140000614060000080fb0061006000000040005f
:1014100062168000d1ff2f00810061000080700003
:10142000601688001e4078006140600061406000e6
:10143000614060000080fb00610060006216800077
:10144000e1ff2f00810061000080700060168800bd
:10145000c402a800c1fc0700c402a900a8fc070040
:10146000c442a900c422a900c8e2a800c8c2a800ba
:10147000c8a2a800c082a800c862a800c842a800ec
:10148000c822a800c802a8000080fa0000000600d8
:101490008460a900670160004c11dd002305800015
:1014a000f1ff2800818061008280700021058800a2
:1014b00068006000a10480000130a10080807000fd
:1014c000a1048800000006000021ef001108880038
:1014d00020088800000006008560a9008580a9001a
:1014e000670160004c11dd0043058000f1ff28001a
:1014f00081806100828070004105880000017800d1
:101500000207b2004411de005305800081ff2f0066
:101510008180610082807000510588006801600050
:101520004311de00610161004b11dd00a104800068
:1015300001b0a10082807000a10488000008b20000
:101540004700de00610060004c00dd00a104800067
:1015500001c0a10080807000a10488000000060086
:101560004211880000118800111188000000060057
:10157000320020005e00370003f0a200889fbe000a
:101580008a9fbe008c1f7800ad010700b4013300b4
:101590006450e1004f0032006420e100520032004c
:1015a00003826c0007003b000905d0000306d00051
:1015b000820f54000c065d00020039000200320068
:1015c00089017800030678008582550004003d00fb
:1015d0000003fd008103fd008502ea008b854200c7
:1015e000840f720002003b0060001000e0801800d1
:1015f0006011b8000005eb007a28e1000a0039000c
:1016000006007800c75ddd00f707b200878075002f
:101610002d003700828171000a01780061056000a9
:101620008180d1000080d3008502e900f9ff3b00f2
:10163000060440008784480002003b006004140058
:10164000e0841c000988a300070032008a81710031
:1016500082817100610164008904d1000884d30093
:101660008b05e800170037000978a30013003a0043
:101670000b00e000130034008b05e900080444006f
:1016800089844c000a4474000978a3000d003a00d4
:101690000b00e000070034008b05e900080444005b
:1016a00089844c0001003a000b0020000978a30057
:1016b000f7ff32000001eb00020037008281710069
:1016c0000a017800230107000cf0a70001f0a00038
:1016d0006c0137006420e10002003a00838f6c0047
:1016e0006c0133000801be000200be006501370036
:1016f000889fbe008a9fbe008c9fbe0002067800b5
:1017000001f0a7000cf0a0000004be0037010700a4
:101710000800be006420e1000700390002003a0022
:10172000f1ff2700f0ff2f000160a000120220004f
:10173000324188005100370009f0a1000800be00c6
:101740000200200003f82300fd000700f4ff3c0026
:101750000800be000200200003982300f6000700e6
:101760000800be00300035000200200003f0230016
:10177000f300070005003c000800be000801be00a1
:10178000470107000005be000e0037000c10a20044
:101790000000200001f823000801be0076ff0700ca
:1017a0000200200003f023003d0107000005be00f9
:1017b000da0107000200200003002c0038010700b6
:1017c0000004be000a00be00b2d02800130b2c009b
:1017d0006aff07000a01be0031010700020f250061
:1017e000330b240065ff0700809fbe000a00be0087
:1017f0005206220013f02b0029010700b2662100d7
:10180000f3f623005dff07000a01be002401070074
:101810004f01be00860007000801be00200107003e
:101820000801be0055ff07000c00a70007003700a5
:10183000b2fd200093fc23000c10a7004fff07000f
:101840000cf0a70001f0a2000c0037000cf0a7007c
:101850000200370001f0a20004003700b2fd2000b2
:10186000930424000c10a60003003700b2fd2000f2
:1018700093fc23000c10a70040ff07004f06be009a
:101880004f05be004f04be00000006000001eb0043
:1018900097ff3700889fbe008a9fbe008c9fbe00c6
:1018a0000004be00d10007000800be0089067800d1
:1018b0006420e10008003900040032000160a0004b
:1018c00012022000324188005300370091fc2300af
:1018d000b0fd20004e0037000006eb0009f0a1002b
:1018e00003f82300020020000800be009200070059
:1018f0000600340001f82300000020000801be00ab
:101900004b0007000004be002c0020000800be00b1
:1019100093e82300320a23008700070012003400f6
:101920000801be00d1fd2300703d2b0013ff07000e
:101930000005be00b3f32300f27a26000800be00c3
:10194000d700070003f82300020020000aff070069
:101950000801be0009ff07000a01be0034000700ad
:101960000004be000c06e8000800be0001f0a10063
:1019700002002000039823006f0007000800be004b
:10198000160035000801be00c50007000005be00b6
:1019900032cd2c0043fb2300f8fe0700809fbe00e1
:1019a0001269280003d52b000a00be00bc00070006
:1019b000620f210013ef2b00f0fe07000a01be00aa
:1019c000b70007004f01be00190007000801be0064
:1019d000b30007000801be00e8fe07000c00e000ad
:1019e0000b0032000c10a70001f0a200b2fd200095
:1019f00093fc23006260e1000400320022a9200071
:101a000063f023000c10a70063f82300dbfe07003f
:101a10000df0a70001f0a2004f06be004f05be006a
:101a20004f04be00000006000081eb00d00037002c
:101a3000889fbe008a9fbe008c1f78008000070030
:101a40008700330003866c006450e1002e003200f2
:101a50006420e100330032006150e1002f003200c9
:101a60006120e1003100320085855500eb07b000b0
:101a70000900200008042000050037000804440085
:101a800089844c000a0031000603430087834b0021
:101a90000001530081815b00f8ff33000203be00a8
:101aa0000800a0000804440089844c00f6ff3900b7
:101ab000c639dd00830173000100320013002000ed
:101ac0008904d1000884d3000998a30005003200de
:101ad0000800a7000300a0008904d1000884d300f7
:101ae0008b05e8008904d1000884d3000001eb00d5
:101af0000281d2001700070001f0a1000cf0a7003e
:101b000001f0a0005f0037006420e10061003200b6
:101b10000801be000200be00f7ff37006120e100af
:101b20005c0032006000b800f3ff370000002000c6
:101b300001f82700f0ff370014002000890137006a
:101b4000f4ff2f00870137004f89de008201780003
:101b5000c001370081002000618055000b003d006e
:101b60000b00200061fe2f000100e1001d00340089
:101b700082817100610164008904d1000884d3006e
:101b80000000e800faff3a007100200061006400e4
:101b9000030070000200600009003200610444008c
:101ba000e0844c000988a500050032008b05e800a0
:101bb0006808e10002003a008904d1000884d300db
:101bc000f20f20000258e10005003d00c75ddd0076
:101bd000f907b2008980750008007800000006004f
:101be0000bf827008b00780000000500c70ade0014
:101bf000f107b200f50fb20008003200e1cf420059
:101c0000020032000170a00024000500810f700066
:101c1000010032000408050044000500810f700037
:101c200002003a00140005008502e90000004000af
:101c300081c04800fcff3b000170a00024000500ab
:101c40000004be00e9ff07000003be000405be005b
:101c50000200be00e5ff0700844f7500000006008b
:101c60000200be006450e100050036006420e1007f
:101c7000020036000968a30001003a000800be0017
:101c80000160a0004f0678004f05be004f04be0063
:101c900000000600f0ff2f00f1ff2700f9ff3700da
:101ca000889fbe008a9fbe008c1f7800e4ff07005b
:101cb000ebff330003866c006450e1002400320027
:101cc0006420e100270032006150e1002200320070
:101cd0006120e100210032008b854200eb07b1005a
:101ce0000134b800003ab8000804420089844a0070
:101cf000013ab8000030b8008880400009014a006d
:101d000004003300000040008180480002014900c7
:101d10008b05e900c909dd00830170000100320074
:101d200013002000c814de004814dd004709de005f
:101d30001200b200c808de000884700085ff0700aa
:101d400001f0a1000cf0a70001f0a000cdff3700ca
:101d50006120e100cfff32000801be000200be009a
:101d6000f7ff37006150e100fcff3a00c9ff370080
:101d7000889fbe008a9fbe008c9fbe0082057800af
:101d80000004be0099ff07000800be006420e100c7
:101d90000700390002003a00f1ff2700f0ff2f0092
:101da0000160a00012022000324188005500370077
:101db0006120e10003003a000b00a70001f82300b6
:101dc0005000370001f0a1000200210093642400bc
:101dd00059ff07000800be0004003500b2fd2000d6
:101de000930c24005a0107000004be000005eb001c
:101df0000b00a6004f0dde0001f0a1000004be00a4
:101e000032982f0023ea2300a5ff07000001eb0012
:101e100003f023000b00a70003f82300d7fd070001
:101e2000eb0007000000a7000a00a20046ff070021
:101e30000b00e000030032000200200003f023004a
:101e4000cdfd070001f0a2000006be000200200048
:101e50009304240092ff07000801be00c7fd07009d
:101e6000809fbe000c00be0022a22a00d3a7230040
:101e70008bff07004f01be00c0fd07000004be003d
:101e800001f0a10002002000039823002aff0700b0
:101e90000800be00190035000001be0080ff0700e9
:101ea0000006be00b2c52900e36223007cff0700e4
:101eb00022222b00f3942b00b0fd07000c01be0082
:101ec00077ff0700e273280083c02300abfd070003
:101ed0000c01be0072ff070042aa2a00a3e22b00f9
:101ee000a6fd07000c01be006dff07000801be0043
:101ef0006bff07000801be00a0fd07000a00a70055
:101f000001f0a2004f06be004f05be004f04be0008
:101f1000000006000001eb0095ff3700889fbe001f
:101f20008a9fbe008c1f78000004be002fff0700b0
:101f30000478a30026003a006120e1002500320069
:101f400009f8a30025003a006420e10021003200d6
:101f5000f507b1000508a3000200320000004000b0
:101f6000818048006044b800031020000200200077
:101f700000004000818048000805440089854c002d
:101f80000a0541008b8549000a0550008b855800e1
:101f9000030033000a00be0002047400838474004e
:101fa0008301d1000281d300830f7100f0ff3a005a
:101fb0008904d1000884d3006001490082017800bf
:101fc000c1adde00fb07b000e2fe07002dff3700c9
:101fd0000960a0000800be002aff3700120220009e
:101fe00032418800f0ff2f00f1ff270025ff370066
:101ff000889fbe008a9fbe000004be00fbfe070053
:102000000800be006420e1000700390002003a0029
:10201000f1ff2700f0ff2f000160a0001202200056
:10202000324188004c00370001f0a10002802000fe
:10203000935c2400c0fe07000800be0004003500c9
:10204000b2fd200093042400c10007000004be007c
:1020500032982f0023f2230011ff07000200200016
:1020600003f0230001f0a70003f0a00043fd0700e8
:1020700057000700801f7800b3fe070001f0a200a0
:102080000005be000200200093fc230004ff0700af
:102090000801be0039fd0700809fbe000a00be0097
:1020a00022a22a00d39f2300fdfe07004f01be009d
:1020b00032fd07000004be0001f0a1000200200074
:1020c000039823009efe070003003d00000020004f
:1020d00001f82300180037000800be000001be0010
:1020e000effe07000005be00823b230043dc2b000f
:1020f000ebfe07000801be00e9fe07000801be0074
:102100001efd07000004be000a00be005237230077
:10211000f3c12300e2fe0700f27a2b00b3ed2b009f
:1021200016fd07000a01be00ddfe070002002000c8
:1021300003f8230011fd07004f00a600030037003d
:102140000801be0003f0a200020037000001be003b
:102150000800be0036fe07004f05be004f04be005b
:1021600000000600889fbe008a9fbe00841f780082
:10217000b3fe07004f00780011003300f0ff2f007e
:10218000838f6c0006003b00040565000a00a70071
:102190000800370009f0a6001000200008003700f2
:1021a000820f5400838f5c00030039001000200070
:1021b00001003e000000200009f0a7000000ea0036
:1021c0004f05be004f04be000000e0000000060006
:1021d0000001be0085fe07000470a70003f0a10007
:1021e0006509b100160032000d0035006828e100d5
:1021f00006003500f0ff2f00f1ff27000300e0008c
:1022000013003b0001002800000005000000400012
:10221000818048008502e900fcff3a000800370091
:10222000f88f420002003c008000eb000000050037
:102230008100d1000080d3008502e800fcff3a0055
:102240000300e00002003b0060001000e080180086
:1022500000000600881f7800030478000300e000f7
:1022600007003d0060001000e080180060011900c8
:10227000e081190002003b0001f02d00030037004f
:102280000400070008f0a70001f0a0004f04780048
:1022900000000600889fbe008a9fbe00008270007a
:1022a0000402710004827100260032000004be00a6
:1022b0000200be006011b8006b09200095022000ea
:1022c0000182cf000a0039000541b1000082cf0031
:1022d000070039000541b1000982cf000400390030
:1022e0000541b1000882cf00010039000541b1006d
:1022f00005425200120032000a003b008281710048
:10230000610164008100d1000080d3008984d30082
:102310000884d3008b05e8000442e800f7ff3a0088
:10232000070037000804440089844c00000048007e
:10233000818048008b05e9000442e900f9ff3a007a
:1023400004fe07004f05be004f04be00000006005b
:102350000400200000003700889fbe008a9fbe0056
:102360008c1f78004f26dd0035fe07003cfe330051
:102370006120e100430032006250e10041003e0074
:102380003e0039006420e1003c0032000582550027
:102390000f003b000402e80038003a00800f5300b1
:1023a000818f5b00350034000800be0003f0a100ff
:1023b00001f0a60003f0a0000cf0a7006ffc0700de
:1023c00030fe37000603430087834b000c4646006f
:1023d0000005530081855b00020033000a03be0044
:1023e0000c00a0000402e900f6ff3b008505780020
:1023f0000602430087824b0004003a006000b800e8
:1024000009f0a70001f0a0001efe370000025200f4
:1024100081825a000704e0000400330006034300f1
:1024200087834b008b05e900faff37000905780028
:102430000604be000203be006011b800c5fd07001f
:10244000e00f5200e08f5a000700350002003c0008
:102450000c08a300040032000601be0003f0a00037
:102460000cf0a70045fc07000a85680001f0a100f8
:102470000af0a70001f0a00002fe37000800be002d
:1024800000fe3700100220000cf0a600304188004a
:1024900000fe3700e4874700889fbe008a9fbe0089
:1024a0008c9fbe008e1f78000004780081067800a3
:1024b000e08f560003003200880e780001003700dc
:1024c0000804e8009804fb000900780037f80700ca
:1024d000e00f5000faff3a00d1022000818f540033
:1024e00008003a000804e8001ac0b3006000b80011
:1024f0008005eb000b067800e4c2b3000ecdb300fc
:102500000600370000457800b0022000808f54009c
:10251000f6ff3a000804e800f4ff37007001650098
:1025200004003a00984f120002003a000a44a0004a
:102530001b003700984478000901fb000203b1003a
:10254000e90f510018003e000a14a0000a01fb0028
:10255000e98f55000f003200700161000100320068
:102560000c06e9008b05e800a20020000300200013
:1025700084bf9f00810a07000ec144000281fb0056
:102580000300200002004000838048000fba97003b
:10259000030037007001610001003a000c06e800fa
:1025a0000804e800ddff370052c6b30082cf5400b4
:1025b000040032008005eb0052c4b30082cf540007
:1025c0002e003a0058417800d3c2b300834f510027
:1025d00002003a000a34a00003003700b3c2b3007f
:1025e000834f510004003a000804e800020037005d
:1025f0000804e8000100370004c3b30098417800e4
:1026000002c3b30084cf5100f9ff32000302fb0084
:102610000403b1008005eb00e90f520014003e00f6
:1026200082c551008b85fb00d84178000302fb0076
:102630000403b100e90f52000d003e006a5ab900d0
:1026400082c151008385fb0084854500d841780014
:102650000302fb000403b100e90f520004003e0036
:102660006a5ab90002c151008285fb008485450089
:1026700068016500010032008b05ea00e08f56001a
:10268000030032006201650001003200880e78000c
:102690002dfd07000004be006011b80026fd0700f4
:1026a000000178006000b800e00f510056003200d1
:1026b0008c85450032f82f00828f550003003d00c5
:1026c00022022000324188004f003700000820001d
:1026d000808f550007003400200220003041880020
:1026e0006105650043003a000000200001f8270062
:1026f00045003700e08f55001a003d008b05ea00c9
:1027000006003700922f2000530125000800be006c
:10271000c7fc07000004be00ea855500e98f55009c
:10272000f8ff3c00060037000200200003122400de
:102730000800be00befc07000004be008b05e900d7
:10274000e08f5500f8ff3a00020020000308200047
:102750000800be00f8fc0700e00f500020003d001c
:102760001a003700e08f550007003a001c003700c0
:10277000922f2000530125000800be0048fd0700ed
:102780000004be00ea855500e9cf5500f8ff3e0081
:102790000600370002002000031224000800be00db
:1027a0003ffd07000004be008b05e900e08f5500e7
:1027b000f8ff3a00f2ff2f00f3f727000800be00f1
:1027c000dffc0700e00f50000500340061056500e4
:1027d0000b003a0000002000010820000a0037002a
:1027e000610565000100320009f0a2000800be008a
:1027f000050037000000200001f82f00020037001c
:1028000000002000010828004f0778004f06be0096
:102810004f05be004f04be004f00b100000006008f
:102820008000eb001bff37008001780002003700ba
:1028300081597800040178000202e900e00f51009c
:10284000fbff3a0000000600889fbe000004be00a7
:10285000060037000000fb0089007800b60607007c
:10286000e10f4000050032000804e800184078003d
:10287000e04f5000f7ff3a000000eb004f04be00ad
:1028800000000600881f780041a32000eeff07002b
:102890000004780041a32000a0002000a606070045
:1028a000080078004f047800000006000c00fa00d1
:1028b000889fbe0000047800f0ff2700d0bf9f0073
:1028c0008004eb0099bf9f0088bf9f00a8bf9f00b6
:1028d000200c2000b0bf9f0078815700cfb0970038
:1028e00070805700ab0007000fb8970009487800c8
:1028f0008fb89700088050004f04be000080fa0097
:1029000000000600889fbe008a9fbe000084fb0076
:10291000d1c6b300814f5000210036004b06200085
:10292000110009000b84d800810578007200400076
:102930004300dd00898d2000008044006022b80043
:102940000600200007fe23005001be004000be002c
:10295000d8080700aa00200000027800811f780034
:10296000110009008a85d8000002fd00cf00780020
:10297000690242004322dd00048244005403be0089
:102980004402be00cb080700809fbe001100090072
:102990000a84d800010478004f00be001000370000
:1029a000ea4f500013003600a90020001100090072
:1029b0000984d80001047800690040004300dd006c
:1029c000898d2000008044006022b80006002000ad
:1029d00007fe23005001be004000be00b5080700fe
:1029e0004344dd00888444003902be002903be0050
:1029f000080037004344dd00808d200008044000bb
:102a00006022b8000600200007fe23003800be0048
:102a10002801be00a70807004f05be004f04be00f6
:102a200000000600889fbe008a9fbe00d1c6b3008a
:102a3000e04f500025003d000040ea000004fb008c
:102a4000814f50000b0034004206200011000900a5
:102a50000204d80001007800a9002000110009003c
:102a60000900d800690040004300dd008a8d200085
:102a700023003700ea4f500011003400a20020006c
:102a8000110009000204d8000104780080007800d9
:102a9000e9804000c308dd00808d200081004000f7
:102aa0004344dd00080040003002be002003be00a9
:102ab0005101be004100be007e0807003200370011
:102ac0004344dd00808d20002c0037000004fb0013
:102ad000814f50001c003400420620001100090004
:102ae0000204d80001007800a900200011000900ac
:102af0000900d800690040004300dd008a82200000
:102b0000000045003002be002003be008b092000fb
:102b10008a8545003b00be002b01be00650807000a
:102b2000809fbe00110009000904d800010478004c
:102b30004f00be004344dd00080545003a02be00d8
:102b40002a03be00dcff3700ea4f500009003400c2
:102b5000a2002000110009000204d800010478003e
:102b600080007800e9804000c308dd0080822000fa
:102b7000caff37004344dd00808220000804400083
:102b80003800be002801be004f05be004f04be0045
:102b900000000600ef04b000889fbe008a9fbe00c0
:102ba0008c9fbe008e1f780000037800d1a79f0085
:102bb000c2a79f000000eb00f0b79f000607780057
:102bc000ca053700dfa097008100e800d1a79f0069
:102bd00052c2b30082cf520006003a000004eb005c
:102be00006c3b30003c2b300b1c2b3005fa0970035
:102bf000120037003e0190000204b20004003200cf
:102c00009e01780085497800030fe800070037002f
:102c10000501fb008e00780002007800c605070061
:102c200000017800e10f4100b00532007fb197004c
:102c30000201e800f2b79f00ac053700904278002f
:102c4000d4c2b30084cf52000b0032000001e80070
:102c500084cf520005003c0083cf520009003200af
:102c600081cf52000e003a000800370086cf520094
:102c70000b003a00070037000830a0000000e80011
:102c8000eeff37000800a000030037000810a00086
:102c9000010037000820a00002007800e7ff37009d
:102ca000d0a79f00e2016400010032000800a100eb
:102cb000e8016400010032000820a1008501fb004a
:102cc0000303b100e98f51000d003e000000200019
:102cd0005fa197006a00b9000003b1009200fb00f9
:102ce00001004000d200fb000103b100e98f500059
:102cf000f8ff3600e0af9f00d2a79f000c0037001e
:102d00000003eb00e6af9f00a3c2b30083cf5200e5
:102d100007003a00cfa39700c7047800c7a79f0019
:102d2000e9af9f005fa597000a05e800daa79f00ba
:102d3000e3c2b300dfa597009bcf110021003a004a
:102d40008800780001e0a000e4c151008b05e80094
:102d5000dba79f001b407800834f50000400320027
:102d600000002000810278000b0278000c00370080
:102d7000cfa1970043027800c3a79f00a4af9f0094
:102d8000dfa297008502e800d5a79f001100370059
:102d90006a00b9000003b100030040000402e8002b
:102da0009401fb0002fd2f0003014100e90f5100d7
:102db000f7ff3600a0af9f0085007800d4a79f00e2
:102dc000040037008800780001c0a0000003eb0079
:102dd000a6af9f00ccc6b300dfa1970033447800b4
:102de000e8679f008c4f540017003200d3a79f0064
:102df000c3c6b300834f540009003c00e9c1510031
:102e0000834f54009b003200e3c14100834f5400c4
:102e100013003200e04f540039053200b90037008a
:102e200053c7b300834f5400bc003200e3c14100dc
:102e3000834f54000c003200e5c15100834f540011
:102e4000b0003a000a0037007080600002002800dd
:102e500001003a000201200082807000dfff37008d
:102e600001a0a000ae0037000170a000ac00370048
:102e7000cfa3970047047800c7a79f00b8b79f006b
:102e8000e00f540002003a00eaa42000bab79f0005
:102e90008005eb00cbb79f00010378003fb097009f
:102ea000cfb097005fb19700efb1970001003700f6
:102eb0008500e8008102780061427800e04f52000e
:102ec000fbff3a00b0b79f00c1b79f00d2b79f0089
:102ed000e3b79f0086007800afac9700e08f540006
:102ee000050032004fb597008a8f54000200310070
:102ef00089057800cbb79f00cfb297000006eb00a2
:102f00006fa89700850f500001003600050650009d
:102f1000688460002e003a008c0178000dc2b30076
:102f2000100037003e0090000004b20004003200a0
:102f30001e0078000d487800000fe80005003700fb
:102f40008e00780000022000fb040700e10f400023
:102f500003003200ffb097008100e800f1b79f0046
:102f60008c0178000c06e900e08f5100edff3a007b
:102f7000170037003e0090000004b2000900320044
:102f80009e0178000801780032407800804978007e
:102f9000030fe80002047800e04f50000a003a00f6
:102fa00011003700080178003200fb0002047800ad
:102fb0008e00780086bf9f00df0407000fbb9700dc
:102fc000e10f4000080032008d06e80006003700df
:102fd000ffb69700080378003fb49700cfb497007e
:102fe0005fb59700efb59700090078008004e9000d
:102ff000e00f5000dfff3a00fdb79f00b8b79f0019
:10300000c9b79f00dab79f00ebb79f0006047800ae
:10301000e00f5400b5043200110037003e0090006c
:103020000004b200040032001e0078000d48780051
:10303000000fe800050037008e0078000002200035
:10304000bd040700e10f400003003200ffb097000d
:103050008100e800f1b79f00080678000100370002
:103060000dc2b3000c04e900e00f5600ebff3a007c
:103070009e0437004fa1970042047800c2a79f002a
:1030800008027800cfa2de000503780086037800ee
:10309000f4af9f0085b79f0096b79f00a7b79f002a
:1030a0000605be000404be004844de00c84add0038
:1030b00008847200e8679f00708660000900320093
:1030c000e04f540007003200e14f44000500320099
:1030d000f8679f00846f9f0026002000c6b79f00fe
:1030e00004003700efdb9700f7679f00180020000f
:1030f000c8b79f0079fa2f0089844700b9b79f00ad
:1031000075ff37006afa2f000a854700bab79f009b
:103110001b002000cbb79f006fff3700010cb300ee
:10312000f1af9f00087020007fa89700080460009e
:103130009102320008002100080460000200320001
:1031400061002000a1af9f007fa99700700461007b
:10315000050032004fa497004803be004802be009d
:10316000c8a79f0006003700cfa497004900be0003
:10317000c9a79f00510607000002be000203be005f
:10318000e4a79f00f5a79f0086af9f0097af9f0021
:103190006022b8006033b8006fa09700ffa09700ce
:1031a0000fa997009fa99700960507008002780055
:1031b000e08f52000c003d006fa49700ffa4970021
:1031c0000fad97009fad97000bf0a200e8a79f00fe
:1031d000f9a79f008aaf9f009baf9f00ffac9700ad
:1031e0003900b300f9af9f000004eb00d8979f00af
:1031f0006022b8006033b8006fa09700ffa097006e
:103200000fa997009fa99700e205070080027800a8
:10321000888f52003b0032006fa09700ffa09700fc
:103220000fa997009fa9970019070700a2fa2f007e
:103230000f0141009c0607005f9397000603e90019
:103240006333b900a8002000809fbe001100090070
:103250000803d800000378004f00be00d6979f00f7
:10326000e00f530002003d000603e900d6979f00df
:103270005f9697008c41ea0003407800e9fd070063
:103280006fa29700ffa297000fab97009fab97002c
:10329000880607000002be000203be0084a79f004c
:1032a00095a79f00a6a79f00b7a79f006022b80020
:1032b0000600200007ff2300520507008002780067
:1032c000e08f520002003d000c04e9000c003700c2
:1032d0006022b80006002000470224000fa09700db
:1032e0009fa097002fa19700bfa197004a05070054
:1032f00080027800e08f5200020035000c04e800e4
:10330000d8979f00afaa9700f88f52000f003c009b
:10331000054078007bfd07000002be000203be00ee
:103320006fa09700ffa097000fa997009fa9970093
:10333000b70407000004be000205be00e8a79f0016
:10334000f9a79f008aaf9f009baf9f005f969700f1
:10335000e90f560016003c006022b8006033b80048
:103360006fa09700ffa097000fa997009fa9970053
:103370008805070080027800e08f52003500320097
:103380006fa09700ffa097000fa997009fa9970033
:10339000e9050700e00f5000e08f5800e00f5900ea
:1033a000e08f59002b003a00e10f5600290034004d
:1033b0000400200005002e00b6e0220017012400c2
:1033c0000fa097009fa097002fa19700bfa1970083
:1033d0000c05070080027800e08f520002003d00db
:1033e000730456000100370072045600d8979f00fe
:1033f0002f6897008bfd07000002be000203be008d
:1034000084a79f0095a79f00a6a79f00b7a79f002e
:103410006fa09700ffa097000fa997009fa99700a2
:1034200002050700c4050700b0b79f00c1b79f00a1
:10343000d2b79f00e3b79f006000b8006011b800ea
:10344000e0a79f00f1a79f0082af9f0093af9f006e
:10345000190037006fa09700ffa097000fa99700f1
:103460009fa99700b4050700b0b79f00c1b79f00a0
:10347000d2b79f00e3b79f00e00507000002be003f
:103480000203be006fa09700ffa097000fa997004e
:103490009fa997007c0607000004be000205be003d
:1034a000e8a79f00f9a79f008aaf9f009baf9f00ee
:1034b0000004eb00d8979f0013c0b300e3679f00a0
:1034c0008c982000100037000600fb004300dd0050
:1034d000000046005001be004000be003fb497000f
:1034e000cfb497005fb59700efb597000040e100bb
:1034f00001c8e10002d0e10003d8e1000500390075
:103500000643e800e6679f006f639700f44f53009f
:10351000edff3a00df939700efac970087835400ec
:103520002fad97008a8353000603fb0006835300e8
:10353000e6af9f00e00f5500020032000603e900ed
:10354000e6af9f00ffad9700638365000300320084
:103550006fa897000000e900e0af9f00ffa8970068
:10356000648360004800320062846000618660000d
:10357000e00f5400190032003e0390000604b20030
:10358000080032009e067800b8c2b300e00f560073
:103590000100320008c4e800884e78000d0fe800f2
:1035a0000a003700d8022000e00f560001003a0060
:1035b0000884e9008e007800080078005e030700a8
:1035c00080027800e18f4200270032007fb197002f
:1035d0000201e800f2b79f0023003700e00f560019
:1035e000210032003e0390000604b20005003200c4
:1035f0001e04780003c2b300034c7800080fe800f3
:10360000060037008e007800000220004a03070001
:1036100080027800e18f420013003200ffb1970072
:103620008301e800f3b79f000f0037003e009000d1
:103630000004b200040032001e0078000c4878003c
:10364000000fe800050037008e007800000320001e
:1036500039030700e10f4000010032008d06e80049
:103660000804e900030037000cc3b3006fac9700f7
:10367000ffb69700e00f5400ecff3c00e8af9f005e
:10368000fdb79f007a0037007faa970068036200a9
:1036900017003a000f0037003e0090000004b2000f
:1036a000040032001e0078000c487800000fe8008b
:1036b000050037008e007800000220001e0307007e
:1036c000e10f4000010032008d06e8000804e90027
:1036d000030037000cc2b3006fac9700ffb6970031
:1036e000e00f5400ecff3c00e8af9f00fdb79f00e7
:1036f000ffaa97006284620061866200e00f5400b6
:10370000190032003e0390000604b20008003200a7
:103710009e067800b8c2b300e00f560001003200e8
:1037200008c4e800884e78000d0fe8000a00370052
:10373000d8022000e00f560001003a000884e9009a
:103740008e00780008007800fb02070080027800f5
:10375000e18f4200460032007fb397000603e80085
:10376000f6b79f0042003700e00f560040003200dd
:103770003e0390000604b200050032001e047800eb
:1037800003c2b300034c7800080fe80006003700be
:103790008e00780000022000e70207008002780017
:1037a000e18f420032003200ffb397008703e80048
:1037b000f7b79f002e0037003e0190000204b200d0
:1037c0000300fb00e00f5100120032001e067800db
:1037d0004300dd00008046003002be002003be0032
:1037e0000800be000a01be0078060700a400200001
:1037f000050020006033b8007b0607000203be000e
:103800000002be0000c3b300004e42000c0fe800ef
:10381000130037004300dd00008046003002be0088
:103820002003be000800be000a01be0067060700b4
:10383000a4002000050020006033b8006a060700dd
:103840000203be000002be000403b0008e00780038
:1038500004007800b8020700e10f400009003200c0
:10386000ffb097008100e800f1b79f000500370026
:103870008d9820003fb49700cfb497005fb59700b4
:10388000efb597006f6097008041e900e3679f0004
:10389000e04f5000c8ff3a00110037003e00900092
:1038a0000004b200040032001e0078000c487800ca
:1038b000000fe800050037008e00780000032000ac
:1038c0009d020700e10f4000010032000804e800fb
:1038d0005f9097000000e900d0979f00020037003a
:1038e0000cc3b3007fb497005f909700e00f5000c7
:1038f000eaff3c00f8b79f002fa9970023c1b3004f
:10390000f20f510001003c00cfd19700e3679f0008
:103910006f6497008802fb002faa9700850252006f
:10392000a5af9f00e04f540011003200be0290008e
:103930000504b200050032001e047800e3c2b300a3
:10394000034c7800080fe800060037008e0078006e
:10395000e00220007802070080027800e18f420038
:1039600003003200ffb297008502e800f5b79f0020
:103970006f6097002bfc07000002be000203be0030
:103980006fa09700ffa097000fa997009fa997002d
:10399000c804070068040700b0b79f00c1b79f00c4
:1039a000d2b79f00e3b79f008d9820003f003700fb
:1039b000be0190000304b2000401fb00e08f51003f
:1039c000120032001e0678004311dd00028146001d
:1039d0003202be002203be003fb09700cfb0970076
:1039e0005fb19700efb19700f8050700a400200031
:1039f000050020006033b800fb05070009c3b300d1
:103a0000094e40000c0fe800160037004311dd009e
:103a1000028146003202be002203be003fb0970082
:103a2000cfb097005fb19700efb19700e7050700af
:103a3000a4002000050020006033b800ea0507005c
:103a40000203be000002be000403b0008e00780036
:103a5000040078003802070000017800e10f4100ff
:103a6000030032007fb597000a05e800fab79f000f
:103a7000ef6597000b01fb004311dd00028146005a
:103a80003202be002203be003fb09700cfb09700c5
:103a90005fb19700efb19700d3050700b0b79f0063
:103aa000c1b79f00d2b79f00e3b79f006f61970037
:103ab0000242e900e4679f00e04f5100bcff3a007a
:103ac0000f0037003e0090000004b20004003200f6
:103ad0001e0078000c487800000fe8000500370051
:103ae0008e0078000003200013020700e10f400061
:103af000010032008d06e8000804e90003003700e9
:103b00000cc3b3002fac9700ffb69700e00f540032
:103b1000ecff3a00fdb79f00ffaa970068816200a2
:103b2000f20132006fab9700e00f5300ef01340059
:103b300008c2b300060678003e0090000004b20000
:103b4000040032001e00780008487800000fe800ea
:103b5000050037008e00780000022000f601070003
:103b6000e10f4000010032008d06e8000c06e9007c
:103b7000f1ff3a00dc013700ffab9700e08f530004
:103b800005003d004fa097004005be004004be0068
:103b9000c0a79f000e003700ffa89700f0826000ca
:103ba000100032004fa297004401be00c4a79f003e
:103bb000f2979f00839f9f00989f9f00a89f9f0060
:103bc0007f9497008f9c97001f9d9700af9d970053
:103bd000b8b79f00c9b79f00dab79f00ebb79f0047
:103be0000b003700cfa49700c9027800c9a79f0037
:103bf00005007800010020000200200003002000e2
:103c0000b0b79f00c1b79f00d2b79f00e3b79f0036
:103c1000afa89700e08f50000d003a00120020007e
:103c2000a2af9f003fb29700cfb297005fb397005b
:103c3000efb39700e00f5200e08f5a00e00f5b00f7
:103c4000e08f5b00020032008002eb00a5af9f0016
:103c50007fab9700060cb200f69f9f00050820007e
:103c6000850f53001b003200050c2000850f530008
:103c700033003a0013c0b300e3679f008c98200024
:103c8000100037000400fb004300dd000000460088
:103c90005001be004000be003fb49700cfb4970073
:103ca0005fb59700efb597000040e10001c8e10063
:103cb00002d0e10003d8e100210039000442e8000d
:103cc000e4679f006f629700f44f5200edff3a00e7
:103cd0001b00370013c0b300e3679f0008012000fa
:103ce000090020006055b800120037003fb297006d
:103cf000cfb297005fb39700efb397000820e100c1
:103d000009a8e1000ab0e1000bb8e1000c0039009d
:103d1000450020000804d0008984d2000a85d20022
:103d20008b85d2008502e900faff3a000040e800e6
:103d3000e0679f006f609700f04f5000ebff3a0084
:103d40006f6397000604fb00afab9700870f54002a
:103d500002003d00e7679f0004003700afac97000a
:103d6000888f540001003d00a8af9f006fad970001
:103d7000e00f550005003200ffad9700e3826500bb
:103d8000020032000a05e900eaaf9f0005002400a6
:103d90007fa897008502600009003200efa8970015
:103da0002fa99700828f50000300340082805000ba
:103db000e1af9f00020037008001eb00e3af9f00fe
:103dc0006f6297000404fb008002eb00e5a79f00f0
:103dd0006fab9700880f53000200340008045300b3
:103de000e8a79f00ffab9700e48263004900320020
:103df0006283630007047800e1036400e00f53006e
:103e000019003200be0290000504b2000800320022
:103e10001e067800d6c2b300e08f530001003a00be
:103e200006c3e900064e78000c0fe8000a003700d0
:103e3000d6022000e08f530001003a000683e9001b
:103e40008e007800060078003b01070080027800b1
:103e5000e18f420017003200ffb497008904e800a8
:103e6000f9b79f0013003700e08f530011003200b4
:103e7000be0290000504b200050032001e03780067
:103e800003c2b300034b7800060fe80006003700ba
:103e90008e007800000220002701070080027800d1
:103ea000e18f4200030032007fb597000a05e80069
:103eb000fab79f00efa59700e08f5500e9003200a8
:103ec0000cc3b3000b047800ffb697003e009000cf
:103ed0000004b200040032001e0078000c48780094
:103ee000000fe800050037008e0078000003200076
:103ef00011010700e10f4000010032008d06e800cb
:103f00000804e900f1ff3a00e8a79f00fdb79f0011
:103f1000d40037006fa09700e00f50001700320068
:103f2000ffa89700e882600014003a000cc2b300ba
:103f300000047800ffb697003e0090000004b20035
:103f4000040032001e0078000c487800000fe800e2
:103f5000050037008e00780000022000f600070000
:103f6000e10f4000010032008d06e8000804e9007e
:103f7000f1ff3a00e8a79f00fdb79f007fa99700d7
:103f800062036100e1036100e00f53001900320099
:103f9000be0290000504b200080032001e06780040
:103fa000d6c2b300e08f530001003a0006c3e90017
:103fb000064e78000c0fe8000a003700d6022000f9
:103fc000e08f530001003a000683e9008e0078007c
:103fd00006007800d800070080027800e18f4200d8
:103fe000a0003200ffb197008301e800f3b79f0003
:103ff0009c003700e08f53009a003200be02900010
:104000000504b200050032001e03780003c2b300ad
:10401000034b7800060fe800060037008e0078009a
:1040200000022000c400070080027800e18f4200f7
:104030008c0032007fb297000402e800f4b79f00c2
:10404000880037000e07e900ff9a97000608200055
:10405000868f52005d003200070c2000878f5200cf
:104060006b003a004370dd007fac9700e00f540016
:1040700022003d0089982000008044003002be00ec
:104080002003be00a4af9f00b5af9f00c6af9f0046
:10409000d7af9f003fb09700cfb097005fb19700b8
:1040a000efb1970049040700e0679f000004fb00a0
:1040b000cfc4de00090578008a0578002faa970092
:1040c000bfaa97004fab9700dfab97000800be0078
:1040d0000a01be00a90407003fb49700cfb49700bf
:1040e0005fb59700efb597000004540081845c0031
:1040f00002055d0083855d001d003700ef94970089
:10410000e08f54001f0032003fb69700cfb69700f3
:104110008a982000000045003004be002005be0043
:104120000801be000c00be0084030700e0679f008a
:104130000000fb00cf80de000801be008f030700f7
:104140000001560081815e00b29f9f00c39f9f00c7
:104150008001eb00d39f9f000002eb00e49f9f00d3
:104160003f9c9700cf9c97005f9d9700ef9d970025
:10417000b8b79f00c9b79f00dab79f00ebb79f00a1
:104180000e00370089982000690178003fb597003c
:10419000811f7800110009000285d800cf00780047
:1041a000a2002000811f7800110009000280d800c1
:1041b00001007800cf007800e0679f00ef6597006e
:1041c0000b43b000eb679f00110037004270dd0029
:1041d0003fb29700cfb297005fb39700efb397005d
:1041e000000478000804e900050033008703d100cb
:1041f0000683d3008582d3000482d300f9ff370001
:104200006f00620059a5200069407800e0679f00b8
:104210006fad97003a0090000004b2000700320032
:104220001a0178006f60970000497800020de800dd
:10423000e04f500007003a0010003700ef6597008c
:104240000b00fb00efa897003b000700e10f4000c8
:104250000a0032007fb097000000e800f0b79f002e
:1042600006003700ffa89700f0806000e1979f00ec
:104270000e017800e2af9f002faf9700e00f5700cc
:1042800070ff3a006faf9700ffa997006881610047
:10429000160032006fa29700e00f520013003400a6
:1042a00008c2b30004067800ffb697003e009000f5
:1042b0000004b200040032001e00780008487800b4
:1042c000000fe800050037008e0078000002200093
:1042d00019000700e10f4000010032008d06e800e0
:1042e0000c06e900f1ff3a00fdb79f005fa39700bd
:1042f00096427800e5679f00e0cf520031fa3a001d
:104300007fb097004f0778004f06be004f05be00f4
:104310004f04be00ef04b100000006000000fa00e8
:1043200068815700cfb8970040a3200019fa070012
:104330000080fa0000000600889fbe00010478009b
:10434000b8009000628160008084eb003c00320085
:10435000810178000320b2001801900002003a00a9
:10436000e00f510036003a000190a000310498009f
:1043700080047800f90fb200e00f510002003a000b
:1043800028009000000c7800ea8f540006003a00e4
:10439000010078000008b20003003a0088007800ad
:1043a000d0002000e4ff070018009000d800900023
:1043b000810f50000b0032000000e800100498004c
:1043c0001800780009487800000ce80010c0b3001d
:1043d00061a6200080487800ea8f540018003a0057
:1043e00005003700880078000940780017000700b2
:1043f0008004780012003700380090000010b200ee
:104400000f00320018019000a800900048009000b2
:104410005000070098009000810f50000400320007
:10442000380090000003b300300498008084eb0053
:104430000000eb001004980028009000000c7800a9
:10444000090078004f04be00000006000200fa00d8
:10445000889fbe00a0ff9f000104780038009000f4
:10446000800078000104b20033003a00e2006000ee
:1044700005003a000003b3003004980011049800ce
:104480000080eb002e003700d8049000e08f54002d
:1044900006003a0012002000e68057004800900015
:1044a0002c0007001904980023003700a800900092
:1044b000e08f500008003a0091a6200021049800e7
:1044c000010c78002100200051049800110498008c
:1044d0000030a0003004980018019000a80090005f
:1044e000480090001b000700280090008080eb002f
:1044f00011049800aff8970001487800000ce8001c
:104500002ff89700ea4f50000b003a003800900057
:104510000010b2000800320018019000a8009000be
:10452000480090000b0007000000eb00100498000a
:10453000a8009000010c7800aff897000100fb0084
:104540004f04be000080fa000000060000c0da0040
:10455000000006000a00fa00e20f500021003e00b1
:1045600060538000e10f500006003200050020007b
:10457000040020000300200000002000e08f520013
:1045800004003a008522200044222000232220003b
:1045900000222000060028009003630002003a0079
:1045a000870a7800100873000040200013006000a4
:1045b00001003a0013a0a0000200780006003700b6
:1045c000930278000510b200fdff3200b102fb003b
:1045d000050a78000000e900e00f5000f8ff3a00fb
:1045e0000800370033002000b3bf9f00c0bf9f000a
:1045f000d1bf9f00e2bf9f006a805700d3ff070032
:104600006fb99700020078000080fa0000000600f1
:104610002800fa00889fbe008a9fbe008c9fbe00c3
:1046200007067800878669000c003b0003047800c9
:104630008704780008f0a10009f0a100840f500061
:10464000858f5800860f5900890f5c0003003300e6
:104650000cf0a20001003a000cf0a100fe000700df
:104660006400e1005f003200780147006408e10067
:10467000610032006c014700748557003200be00b3
:104680001201be003a04be001a05be001e039000cf
:10469000be0a90008503530006003d000004fd00a3
:1046a0008104fd000205fd008305fd008703ea008b
:1046b000050378000df8a300040032006004140024
:1046c000e0841c0060051d00e0851d006022b8002c
:1046d0007d0320000d38e1008006eb000b0039005f
:1046e0004433dd00f300b20083017300390037006a
:1046f000848272000d027800e10664008b85d1008f
:104700000a85d3008984d3000884d3008703e90095
:10471000f7ff3b0008004000898048000a0149007b
:104720008b81490004003b0060001000e08018000d
:1047300060011900e08119000358a300090032004c
:104740008d82720084827200610260008301d10058
:104750000281d3008180d3000080d3000603e800eb
:104760001b0037000348a30017003a000600e000d2
:10477000170034000603e9000d00a3000000480004
:104780008180480002014900838149000348a30059
:104790000f003a000600e000090034000603e900bb
:1047a00000004000818048000201490083814900e7
:1047b00001003a000003eb000348a300f5ff3200bc
:1047c0006022b800020037008482720061826600b5
:1047d0007500070003f0a1000cf0a70003f0a00093
:1047e000b1003700640147006408e10002003a00ac
:1047f0000df8a300a9003a003200be001201be006d
:10480000a90037008f1fd100120307008f87e9002e
:104810000000e00000000600809feb000d03070091
:104820008f87e9000000e000000006002800fa0081
:10483000889fbe008a9fbe008c9fbe0003866b00cf
:10484000850007006400e100440032006408e100d4
:104850004a0032006100e100460032006108e100d8
:1048600049003200ec0647006000b8003d02be007f
:104870003d03be00f48657006011b8003d04be0041
:104880003d05be007d0320000b0037000000a000a6
:104890008d06e900130032000402420085824a00be
:1048a00006034b0087834b000000400081804800d6
:1048b00002014900838149000802520089825a009e
:1048c0000a035b008b835b00f0ff3b0008024200a1
:1048d00089824a000a034b008b834b008d06e90056
:1048e000edff3a008482720086827200f707b20000
:1048f0008782720001003200150020001e04900023
:104900003e0b900006035400e63fb0000368a3008e
:10491000070032000000a7000500a0008301d100bd
:104920000281d3008180d3000080d3000603e80019
:104930008301d1000281d3008180d3000080d300a5
:104940000002eb000482d2001700070003f0a10070
:104950000cf0a70003f0a0005300370064024700ea
:104960006408e1004d0032003400be003401be0096
:10497000f6ff37006108e100480032006011b8001e
:104980006000b800f1ff370003ff2700020020009d
:10499000fbff3700801feb00ae0207008f87e900a6
:1049a0000000e00000000600180020005700200072
:1049b000080453000d003d000600200097fc2f0066
:1049c0000740e1001e003400848272006102600032
:1049d0008301d1000281d3008180d3000080d30005
:1049e0000804e800f8ff3a00470020006104600076
:1049f00005047400040464000d00320061004000ee
:104a0000e080480060014900e081490003b8a5004a
:104a1000070032000603e8006538e10004003a00b0
:104a20008301d1000281d3008180d3000080d300b4
:104a3000f87f20000830e10003003500080378000b
:104a40006000b8006011b8004433dd00f300b2002c
:104a50008301730000000600680447000294be0052
:104a60000094be00fc0447008694be008494be00ff
:104a700009007800c002070008007800be020700a5
:104a800099007800814f70000b003b000800be00c9
:104a9000990207004f00b10003003700f3ff270021
:104aa000f2ff2f006110b9004f06be004f05be0097
:104ab0004f04be000080fa00000006008103780069
:104ac0004af407000001be006000b8000478a300ab
:104ad00013003a006220e10015003e000d0039008d
:104ae0008301d1000281d3008180d3008301d100f2
:104af0000281d3008180d3008301d1000281d300e1
:104b00008180d3000538b000c42add00f300b20074
:104b10008381720007f0a70003f0a00000000600e8
:104b2000f3ff2700f2ff2f006110b900fbff3700f1
:104b300003ff2700f7ff37001400fa00889fbe002c
:104b40008a9fbe008c9fbe000004be000205be000e
:104b5000680047000a90be000890be008602070069
:104b60000070a7000bf0a1000bf8a30020003a0092
:104b70009e0990000e099000fe0090006e009000cb
:104b80009e0290003443200084825200c6ff32000f
:104b90000a003c00b4fc2f000428e100140034009b
:104ba0008301d1000281d3008180d3000080d30033
:104bb0008502e800faff3a00bbff3700b40020008e
:104bc0000428e10007003c0000004000818048000c
:104bd00002014900838149008502e900faff3a0099
:104be000b1ff370003002800020020000100370059
:104bf0006011b8006000b800abff3700889fbe00ae
:104c000000827000040271000482710024003200ee
:104c100036432000c50020008383cf000a003900fe
:104c20000541b1008283cf00070039000541b10082
:104c30008183cf00040039000541b1008083cf009b
:104c4000010039000541b10085c353006022b8005e
:104c5000120032000a003b00848272006102600090
:104c60008301d1000281d3008180d3000080d30072
:104c70000603e8008743e800f7ff3a000700370023
:104c80000000400081804800020149008381490002
:104c90000603e9008743e900f9ff3a0042ff0700f5
:104ca0004f04be0000000600dd0107000509780082
:104cb000000006002800fa00889fbe008a9fbe0000
:104cc0008c9fbe0003866b0063ff07000028a300d3
:104cd00064003a000128a30067003a000008a3001e
:104ce00062003a000108a30065003a001e0090002f
:104cf000be08900081064000ed3fb100f4805700ef
:104d0000ee019000111ab8008e099000311bb80016
:104d10009e099000311cb800511db800f485570061
:104d200046000700fe0190003a0007008b85e8006e
:104d30003e0007008e09900040000700ee01900041
:104d4000340007008b85e800380007008e099000ca
:104d5000400007009e0990001b18b800890440001d
:104d60000a854800fe019000340007008b85e800aa
:104d700038000700ee019000300007008e09900017
:104d80001b18b800890440000a8548000a98a3004f
:104d900008003a000402420085824a0006034b00e4
:104da00087834b0008044c0089844c000a054d00a1
:104db0008d06e90084827200850273004c3add00a2
:104dc000850272000100320015002000443ade0026
:104dd0001400b2004538de00cb45dd000b0070004a
:104de000c540de00cb4ddd008b8070004549de0004
:104df000cb55dd000b017100c551de000d037800bd
:104e0000e9fe070003f0a1000cf0a70003f0a000ea
:104e100025ff37001b18b8008502400006834800b4
:104e2000e0834b0060044c00070037001b18b800fb
:104e30000603400087834800faff37001b18b800bc
:104e40008703400008844800e0844c0060054d0062
:104e5000000006001b18b8000804400089844800c0
:104e6000faff37000108a3000cff3a005800be000b
:104e70005801be00e3ff37000008a30007ff3a0017
:104e800009047800f9ff370007f0a200e0fd3700c1
:104e90001400fa00889fbe008a9fbe008c9fbe004f
:104ea0000005be000206be00680047000c90be0070
:104eb0000a90be00b00107006400e1001a00320051
:104ec00016003e006100e1001a0032006e049000fe
:104ed000fe0490000e0b90009e0b90006011b80035
:104ee0009e0590000b38b100d50120008281710031
:104ef000610164008703d1000683d3008984d30055
:104f00000884d3008502e900f8ff3a0011f3070096
:104f10000df0a70001f0a000e3fe3700f1ff27002d
:104f2000f0ff2f00e0fe370001f82700000020000e
:104f3000f7ff37006000b800f5ff37006022b800c7
:104f4000060220000000d0008180d2000482d2003e
:104f50008582d2000000a0000202520083825a0023
:104f6000030031000202420083824a000000a100d7
:104f70000603e900f3ff3a0000000600020ab90048
:104f8000001bb9000200b80081004200810043000c
:104f900000000600889fbe008a9fbe003004be004d
:104fa0002005be000404440085844c0006054d0025
:104fb00087854d000898be000a90be000440e100bd
:104fc00005c8e10006d0e10007d8e1000200310089
:104fd000680040001008e8004f05be004f04be0006
:104fe00000000600889fbe008a9fbe008c1f7800cc
:104ff000000678003c04be002c05be0004005400ee
:1050000085805c0006015d0087815d00009ebe001a
:10501000029ebe00100020000440e10005c8e1002f
:1050200006d0e10007d8e100010039000000eb00e4
:105030001c0e10004f0678004f05be004f04be0046
:10504000000006001200fa00889fbe008a9fbe0082
:105050008c9fbe000205be000004be00e4b79f00a6
:10506000f5b79f0086bf9f0097bf9f000000eb0031
:10507000d0b79f00c0b79f00b0b79f00a0b79f00f8
:1050800090b79f0000067800fd032000dfb1970075
:105090004fb0970003814100bfb09700e08f5100ef
:1050a00004003d00290007007e805700b9ff07007b
:1050b00003003700250007007e805700c9ff070066
:1050c000dfb09700e08f500007003500140020008b
:1050d000050020006033b800080472008984720063
:1050e0000a0573008b8573000c06e8008d0f5600cf
:1050f000e6ff3400e08f500006003d006fb29700dd
:10510000ffb297000fbb97009fbb97007e805700b0
:10511000a0ff07005fa89700e00f500004003a00ce
:105120001fb49700afb497003fb59700cfb5970075
:105130000800be000a01be004f06be004f05be00bb
:105140004f04be000080fa0000000600cf01de0020
:1051500002817100b2b79f004f09de0000004000dd
:1051600000007100a0b79f000fb097004f01de0054
:10517000818040008100710091b79f007faa970055
:10518000cf20de00000040000080700080b79f004c
:105190000800be000a01be004f18de0004024200f3
:1051a00000027200f4af9f000804440089844c00a0
:1051b0000a054d008b854d004fb29700dfb2970076
:1051c0006fb39700ffb3970000000600881f7800b8
:1051d00018002000881f78009aff07008f87e900d9
:1051e0004f04780000000600801feb0095ff0700c9
:1051f0008f87e90000000600889fbe008a9fbe00de
:105200008c1f7800e00f5000e08f5800e00f59002d
:10521000e08f59000f003d006044b8006055b800b1
:105220000000540081805c0002015d0083815d000c
:105230001c0020000820e10009a8e1000ab0e100fc
:105240000bb8e1000d003d00190007000006eb005f
:105250000a0037000006eb00e00f5200e08f5a0012
:10526000e00f5b00e08f5b0004003d006044b8008d
:105270006055b8000e0007001c002000d3ff070097
:10528000e00f5600060032006022b8006033b8001c
:105290000000520081805a0002015b0083815b00a4
:1052a0004f0678004f05be004f04be000000060008
:1052b0000402540085825c0006035d0087835d0064
:1052c00000000600889fbe008a9fbe008c1f7800e9
:1052d000e00f5000e08f5800e00f5900e08f5900b8
:1052e0000d003d006044b8006055b8000000540057
:1052f00081805c0002015d0083815d001c00200054
:105300000820e10009a8e1000ab0e1000bb8e100c3
:105310000d003d00080037000006eb00e00f5200d2
:10532000e08f5a00e00f5b00e08f5b0006003d005d
:105330006044b8006055b8000402540085825c00e7
:1053400006035d0087835d00a7ff0700e00f56009e
:10535000060032006022b8006033b800000052003e
:1053600081805a0002015b0083815b004f06780058
:105370004f05be004f04be0000000600889fbe001f
:105380008a9fbe008c1f78000006eb00e00f5000e3
:10539000e08f5800e00f5900e08f590007003d00f2
:1053a0006044b8006055b8000000540081805c0083
:1053b00002015d0083815d001c002000e00f5200af
:1053c000e08f5a00e00f5b00e08f5b0007003d00bc
:1053d0006044b8006055b8000402540085825c0047
:1053e00006035d0087835d000c00a20089000700b2
:1053f000e00f5600060032006022b8006033b800ab
:105400000000520081805a0002015b0083815b0032
:105410004f0678004f05be004f04be000000060096
:105420000003be00f1f107006220e100020032003b
:105430000600be0005000500e507b100f107b20057
:1054400004f023008480700007f0a70001f0a000a2
:1054500024000500889fbe008a9fbe008c9fbe006e
:105460000404be000605be00809fbe00829fbe00f1
:105470002f000700040678000800be000a01be00e5
:105480002b000700840678004f03be004f02be00c9
:105490008d4f76007fb0970013003300f0ff2f0090
:1054a0008b8f6b0006003b000d0666000c00a7000a
:1054b0000a00370007f0a600100020000a0037009d
:1054c000880f5200898f5a008a0f5b008b8f5b0018
:1054d000030039001000200001003e000000200001
:1054e00007f0a7000000ea004f06be004f05be000f
:1054f0004f04be0000000600e48240001078a300c4
:1055000007003200640240001178a3003400be009e
:105510001401be00040032000330a70000000600a2
:105520003500be001501be000330a00000000600db
:1055300005ff270005826100070032000428e10012
:1055400001003200240005000600070001003a00b7
:10555000440005000408050002000700f9ff3a00b6
:10556000140005006f8261008102700085027100e5
:105570008502720000000600800078005002be0024
:105580005003be004439de00f700b200f37f200074
:1055900003016100090032000218e10016003a0020
:1055a000850172008301730083817300000820006d
:1055b00015003a00400020001300370085017200fa
:1055c000830173008381730005003a0004a8be00c4
:1055d00006a8be00100020000b0037000201e90001
:1055e0000402420085824a0006034b0087834b0079
:1055f0000748a300f9ff32000740a00004a8be003e
:1056000006a8be00200020008000980092009800ac
:1056100000000600889fbe008a9fbe008c9fbe00cf
:105620000404b8000506b8008904460060854e00f1
:105630000606b8000a054600e0854e000706b800d9
:105640008b054600040eb800890446000a854e000a
:10565000e0854d00050eb8000a0546008b854e001a
:10566000060eb8008b0546000416b8000a05460071
:105670008b854e000516b8008b054600041eb80049
:105680008b0546000800be000a01be004f06be00a2
:0c5690004f05be004f04be0000000600e5
:020000040000fa
:10569c004f70000065720000616e00006420000015
:1056ac00313a000020200000256600000a000000ae
:1056bc000a3100007374000000520000202d00001d
:1056cc003e20000044000000456e000074650000a0
:1056dc00720000006172000063740000616e0000d3
:1056ec000061000072630000636f00007300000033
:1056fc006172000063730000696e0000000a000014
:10570c003372000064000000442000002d200000d3
:10571c003e20000052000000746100006e0000008a
:10572c00636f000073000000736900006e000000de
:10573c000a3200006e640000002000002f200000e0
:10574c00002000002a200000002000002d20000076
:10575c00002000002b200000000000000a55000073
:10576c004152000054200000436f00006e660000a0
:10577c006967000075720000656400000a00000093
:10578c004e6f0000205700006f7200006b69000024
:10579c00652100002020000000250000660a0000a2
:0857ac0000250000660000006a
:020000040000fa
:1057b4000200fa000000eb00000f7800040037003c
:1057c400000000001e0078000000e800000f7800d0
:1057d4009e007800b0d42100808f5000f8ff36007e
:1057e4000080fa00000006000200fa00004f780072
:1057f400f0c2b3009e40780080cf50000e00340009
:1058040090c3b3009e40780080cf50000a003c0053
:105814002141800000812000008040001e48780063
:105824001e00fb0020118800204180000000e800d9
:105834002041880027003700e0c2b3009e40780072
:1058440080cf500013003a00714080000002200015
:1058540000806000e00f50000e003a0020418000fc
:10586400e90f50000b003c00214180000081200022
:10587400008040001e4878001e00fb0020118800b4
:10588400204180000000e800204188000ea8a80004
:1058940010003700d0c2b3009e40780080cf500083
:1058a4000c003a0020418000ea0f500009003a0041
:1058b4002141800000812000008040001e487800c3
:1058c4001e00fb0020118800204180000000e80039
:1058d40020418800f0c4b3009e40780080cf50007f
:1058e4000a003a007040800068006000e00f500039
:1058f400060032007040800070006000e00f50002d
:1059040002003200004180006040880050c4b300af
:105914009e40780080cf50004f003a0070408000d5
:1059240068006000e00f500013003a0070408000ef
:1059340070006000e00f50000f003a00008120006a
:10594400b6f307000040880011408800a200200040
:105954008000eb0000812000b2f307000ea8a9002c
:105964000e68a8000000eb002041880000812000a0
:10597400c3f30700380037007040800068006000ff
:10598400e00f50001600320070408000700060008c
:10599400e00f500012003a0000418000e00f500078
:1059a4000f003a00008120009cf30700204088008b
:1059b40031408800a20020008000eb00008120001c
:1059c40098f307000e88a8000ea8a9000000eb00b9
:1059d4002041880000812000a9f307001e00370041
:1059e4007040800068006000e00f50001700320033
:1059f40000418000e10f500014003200004180009b
:105a0400e20f50001100320000418000e30f50000b
:105a14000e00320000418000e40f50000b00320001
:105a24000040800011408000809fbe00e0b42a0046
:105a3400801f780038fa0700e6875700004180008d
:105a4400604088000ec8a800030037000ec8a800f4
:105a54000000eb00204188000040eb001ee8b70086
:105a64000080fa00000006000200fa00000f78002f
:105a74007040800064006000e00f50003a00320083
:105a84001e007800cf80de00f2002000030020001a
:105a9400820f5000838f580031003e0000600100e7
:105aa4000f0037002d0037001100370015003700b4
:105ab4002a00370029003700280037001600370075
